{
  "contractName": "TokenSale",
  "abi": [
    {
      "constant": true,
      "inputs": [],
      "name": "priceInWei",
      "outputs": [
        {
          "name": "",
          "type": "uint256"
        }
      ],
      "payable": false,
      "stateMutability": "view",
      "type": "function"
    },
    {
      "constant": true,
      "inputs": [],
      "name": "closed",
      "outputs": [
        {
          "name": "",
          "type": "bool"
        }
      ],
      "payable": false,
      "stateMutability": "view",
      "type": "function"
    },
    {
      "constant": false,
      "inputs": [],
      "name": "renounceOwnership",
      "outputs": [],
      "payable": false,
      "stateMutability": "nonpayable",
      "type": "function"
    },
    {
      "constant": true,
      "inputs": [],
      "name": "owner",
      "outputs": [
        {
          "name": "",
          "type": "address"
        }
      ],
      "payable": false,
      "stateMutability": "view",
      "type": "function"
    },
    {
      "constant": false,
      "inputs": [
        {
          "name": "_newOwner",
          "type": "address"
        }
      ],
      "name": "transferOwnership",
      "outputs": [],
      "payable": false,
      "stateMutability": "nonpayable",
      "type": "function"
    },
    {
      "constant": true,
      "inputs": [],
      "name": "token",
      "outputs": [
        {
          "name": "",
          "type": "address"
        }
      ],
      "payable": false,
      "stateMutability": "view",
      "type": "function"
    },
    {
      "inputs": [
        {
          "name": "_token",
          "type": "address"
        },
        {
          "name": "_price",
          "type": "uint256"
        }
      ],
      "payable": false,
      "stateMutability": "nonpayable",
      "type": "constructor"
    },
    {
      "payable": true,
      "stateMutability": "payable",
      "type": "fallback"
    },
    {
      "anonymous": false,
      "inputs": [
        {
          "indexed": false,
          "name": "amount",
          "type": "uint256"
        }
      ],
      "name": "Refund",
      "type": "event"
    },
    {
      "anonymous": false,
      "inputs": [
        {
          "indexed": false,
          "name": "buyer",
          "type": "address"
        },
        {
          "indexed": false,
          "name": "seller",
          "type": "address"
        },
        {
          "indexed": false,
          "name": "price",
          "type": "uint256"
        },
        {
          "indexed": false,
          "name": "amount",
          "type": "uint256"
        }
      ],
      "name": "TokenPurchased",
      "type": "event"
    },
    {
      "anonymous": false,
      "inputs": [
        {
          "indexed": true,
          "name": "previousOwner",
          "type": "address"
        }
      ],
      "name": "OwnershipRenounced",
      "type": "event"
    },
    {
      "anonymous": false,
      "inputs": [
        {
          "indexed": true,
          "name": "previousOwner",
          "type": "address"
        },
        {
          "indexed": true,
          "name": "newOwner",
          "type": "address"
        }
      ],
      "name": "OwnershipTransferred",
      "type": "event"
    },
    {
      "constant": true,
      "inputs": [],
      "name": "amount",
      "outputs": [
        {
          "name": "",
          "type": "uint256"
        }
      ],
      "payable": false,
      "stateMutability": "view",
      "type": "function"
    },
    {
      "constant": false,
      "inputs": [],
      "name": "refund",
      "outputs": [
        {
          "name": "",
          "type": "bool"
        }
      ],
      "payable": false,
      "stateMutability": "nonpayable",
      "type": "function"
    }
  ],
  "bytecode": "0x608060405234801561001057600080fd5b50604051604080610c0a8339810180604052810190808051906020019092919080519060200190929190505050336000806101000a81548173ffffffffffffffffffffffffffffffffffffffff021916908373ffffffffffffffffffffffffffffffffffffffff160217905550600081101561008b57600080fd5b81600260006101000a81548173ffffffffffffffffffffffffffffffffffffffff021916908373ffffffffffffffffffffffffffffffffffffffff1602179055508060018190555060008060146101000a81548160ff0219169083151502179055505050610b0c806100fe6000396000f30060806040526004361061008e576000357c0100000000000000000000000000000000000000000000000000000000900463ffffffff1680633c8da5881461033e578063590e1ae314610369578063597e1fb514610398578063715018a6146103c75780638da5cb5b146103de578063aa8c217c14610435578063f2fde38b14610460578063fc0c546a146104a3575b600080600060149054906101000a900460ff161515156100ad57600080fd5b60006100b76104fa565b1115156100c357600080fd5b600154341415156100d357600080fd5b6001600060146101000a81548160ff0219169083151502179055506100f66104fa565b9150339050600260009054906101000a900473ffffffffffffffffffffffffffffffffffffffff1673ffffffffffffffffffffffffffffffffffffffff1663a9059cbb82846040518363ffffffff167c0100000000000000000000000000000000000000000000000000000000028152600401808373ffffffffffffffffffffffffffffffffffffffff1673ffffffffffffffffffffffffffffffffffffffff16815260200182815260200192505050602060405180830381600087803b1580156101c057600080fd5b505af11580156101d4573d6000803e3d6000fd5b505050506040513d60208110156101ea57600080fd5b8101908080519060200190929190505050151561020657600080fd5b6000809054906101000a900473ffffffffffffffffffffffffffffffffffffffff1673ffffffffffffffffffffffffffffffffffffffff166108fc6001549081150290604051600060405180830381858888f1935050505015801561026f573d6000803e3d6000fd5b507f8daf503382665d950e449b86172be5222275c90f4ddf69c29fdaa8237a562a6d816000809054906101000a900473ffffffffffffffffffffffffffffffffffffffff1660015485604051808573ffffffffffffffffffffffffffffffffffffffff1673ffffffffffffffffffffffffffffffffffffffff1681526020018473ffffffffffffffffffffffffffffffffffffffff1673ffffffffffffffffffffffffffffffffffffffff16815260200183815260200182815260200194505050505060405180910390a15050005b34801561034a57600080fd5b506103536105f9565b6040518082815260200191505060405180910390f35b34801561037557600080fd5b5061037e6105ff565b604051808215151515815260200191505060405180910390f35b3480156103a457600080fd5b506103ad61081f565b604051808215151515815260200191505060405180910390f35b3480156103d357600080fd5b506103dc610832565b005b3480156103ea57600080fd5b506103f3610934565b604051808273ffffffffffffffffffffffffffffffffffffffff1673ffffffffffffffffffffffffffffffffffffffff16815260200191505060405180910390f35b34801561044157600080fd5b5061044a6104fa565b6040518082815260200191505060405180910390f35b34801561046c57600080fd5b506104a1600480360381019080803573ffffffffffffffffffffffffffffffffffffffff169060200190929190505050610959565b005b3480156104af57600080fd5b506104b86109c0565b604051808273ffffffffffffffffffffffffffffffffffffffff1673ffffffffffffffffffffffffffffffffffffffff16815260200191505060405180910390f35b6000600260009054906101000a900473ffffffffffffffffffffffffffffffffffffffff1673ffffffffffffffffffffffffffffffffffffffff166370a08231306040518263ffffffff167c0100000000000000000000000000000000000000000000000000000000028152600401808273ffffffffffffffffffffffffffffffffffffffff1673ffffffffffffffffffffffffffffffffffffffff168152602001915050602060405180830381600087803b1580156105b957600080fd5b505af11580156105cd573d6000803e3d6000fd5b505050506040513d60208110156105e357600080fd5b8101908080519060200190929190505050905090565b60015481565b6000806000809054906101000a900473ffffffffffffffffffffffffffffffffffffffff1673ffffffffffffffffffffffffffffffffffffffff163373ffffffffffffffffffffffffffffffffffffffff1614151561065d57600080fd5b600060149054906101000a900460ff1615151561067957600080fd5b60006106836104fa565b11151561068f57600080fd5b6001600060146101000a81548160ff0219169083151502179055506106b26104fa565b9050600260009054906101000a900473ffffffffffffffffffffffffffffffffffffffff1673ffffffffffffffffffffffffffffffffffffffff1663a9059cbb6000809054906101000a900473ffffffffffffffffffffffffffffffffffffffff16836040518363ffffffff167c0100000000000000000000000000000000000000000000000000000000028152600401808373ffffffffffffffffffffffffffffffffffffffff1673ffffffffffffffffffffffffffffffffffffffff16815260200182815260200192505050602060405180830381600087803b15801561079a57600080fd5b505af11580156107ae573d6000803e3d6000fd5b505050506040513d60208110156107c457600080fd5b810190808051906020019092919050505015156107e057600080fd5b7f2e1897b0591d764356194f7a795238a87c1987c7a877568e50d829d547c92b97816040518082815260200191505060405180910390a1600191505090565b600060149054906101000a900460ff1681565b6000809054906101000a900473ffffffffffffffffffffffffffffffffffffffff1673ffffffffffffffffffffffffffffffffffffffff163373ffffffffffffffffffffffffffffffffffffffff1614151561088d57600080fd5b6000809054906101000a900473ffffffffffffffffffffffffffffffffffffffff1673ffffffffffffffffffffffffffffffffffffffff167ff8df31144d9c2f0f6b59d69b8b98abd5459d07f2742c4df920b25aae33c6482060405160405180910390a260008060006101000a81548173ffffffffffffffffffffffffffffffffffffffff021916908373ffffffffffffffffffffffffffffffffffffffff160217905550565b6000809054906101000a900473ffffffffffffffffffffffffffffffffffffffff1681565b6000809054906101000a900473ffffffffffffffffffffffffffffffffffffffff1673ffffffffffffffffffffffffffffffffffffffff163373ffffffffffffffffffffffffffffffffffffffff161415156109b457600080fd5b6109bd816109e6565b50565b600260009054906101000a900473ffffffffffffffffffffffffffffffffffffffff1681565b600073ffffffffffffffffffffffffffffffffffffffff168173ffffffffffffffffffffffffffffffffffffffff1614151515610a2257600080fd5b8073ffffffffffffffffffffffffffffffffffffffff166000809054906101000a900473ffffffffffffffffffffffffffffffffffffffff1673ffffffffffffffffffffffffffffffffffffffff167f8be0079c531659141344cd1fd0a4f28419497f9722a3daafe3b4186f6b6457e060405160405180910390a3806000806101000a81548173ffffffffffffffffffffffffffffffffffffffff021916908373ffffffffffffffffffffffffffffffffffffffff160217905550505600a165627a7a723058202a0517dd939269fca37416853cf074604de5c7be3954efc9a98b9406fac8ee570029",
  "source": "pragma solidity ^0.4.11;\n\nimport './DetailedERC20.sol';\nimport 'openzeppelin-solidity/contracts/ownership/Ownable.sol';\n\ncontract TokenSale is Ownable {\n  bool public closed;\n  uint256 public priceInWei;\n  DetailedERC20 public token;\n\n  event Refund(uint256 amount);\n  event TokenPurchased(address buyer, address seller, uint256 price, uint256 amount);\n\n  modifier notClosed() {\n    require(!closed);\n    _;\n  }\n\n  modifier hasSomeTokens() {\n    require(amount() > 0);\n    _;\n  }\n\n  function TokenSale(DetailedERC20 _token, uint256 _price) {\n    if (_price < 0) revert();\n\n    token = _token;\n    priceInWei = _price;\n    closed = false;\n  }\n\n  function amount() constant returns(uint256) {\n    return token.balanceOf(this);\n  }\n\n  function () payable notClosed hasSomeTokens {\n    require(msg.value == priceInWei);\n\n    closed = true;\n\n    uint256 _amount = amount();\n    address _buyer = msg.sender;\n    if(!token.transfer(_buyer, _amount)) revert();\n    owner.transfer(priceInWei);\n    TokenPurchased(_buyer, owner, priceInWei, _amount);\n  }\n\n  function refund() onlyOwner notClosed hasSomeTokens returns(bool) {\n    closed = true;\n\n    uint256 _amount = amount();\n    if(!token.transfer(owner, _amount)) revert();\n    Refund(_amount);\n    return true;\n  }\n}\n",
  "sourcePath": "/home/rise/Documents/token-marketplace/contracts/TokenSale.sol",
  "compiler": {
    "name": "solc",
    "version": "0.4.24+commit.e67f0147.Emscripten.clang"
  },
  "schemaVersion": "2.0.1",
  "updatedAt": "2018-08-28T03:47:03.747Z"
}