{
  "contractName": "TokenPurchaseFactory",
  "abi": [
    {
      "inputs": [],
      "payable": false,
      "stateMutability": "nonpayable",
      "type": "constructor"
    },
    {
      "anonymous": false,
      "inputs": [
        {
          "indexed": false,
          "name": "tokenPurchaseAddress",
          "type": "address"
        }
      ],
      "name": "TokenPurchaseCreated",
      "type": "event"
    },
    {
      "constant": false,
      "inputs": [
        {
          "name": "_token",
          "type": "address"
        },
        {
          "name": "_amount",
          "type": "uint256"
        }
      ],
      "name": "createTokenPurchase",
      "outputs": [
        {
          "name": "",
          "type": "address"
        }
      ],
      "payable": false,
      "stateMutability": "nonpayable",
      "type": "function"
    }
  ],
  "bytecode": "0x608060405234801561001057600080fd5b50611000806100206000396000f300608060405260043610610041576000357c0100000000000000000000000000000000000000000000000000000000900463ffffffff168063019c344814610046575b600080fd5b34801561005257600080fd5b50610091600480360381019080803573ffffffffffffffffffffffffffffffffffffffff169060200190929190803590602001909291905050506100d3565b604051808273ffffffffffffffffffffffffffffffffffffffff1673ffffffffffffffffffffffffffffffffffffffff16815260200191505060405180910390f35b6000806000831115156100e557600080fd5b83836100ef61026b565b808373ffffffffffffffffffffffffffffffffffffffff1673ffffffffffffffffffffffffffffffffffffffff16815260200182815260200192505050604051809103906000f080158015610148573d6000803e3d6000fd5b5090508073ffffffffffffffffffffffffffffffffffffffff1663f2fde38b336040518263ffffffff167c0100000000000000000000000000000000000000000000000000000000028152600401808273ffffffffffffffffffffffffffffffffffffffff1673ffffffffffffffffffffffffffffffffffffffff168152602001915050600060405180830381600087803b1580156101e657600080fd5b505af11580156101fa573d6000803e3d6000fd5b505050507f48fbb1439e22edc03a5f0112744d058859b1debc0fdff1efc799fdf468534d6f81604051808273ffffffffffffffffffffffffffffffffffffffff1673ffffffffffffffffffffffffffffffffffffffff16815260200191505060405180910390a18091505092915050565b604051610d598061027c833901905600608060405234801561001057600080fd5b50604051604080610d598339810180604052810190808051906020019092919080519060200190929190505050336000806101000a81548173ffffffffffffffffffffffffffffffffffffffff021916908373ffffffffffffffffffffffffffffffffffffffff16021790555060008111151561008c5761010b565b81600260006101000a81548173ffffffffffffffffffffffffffffffffffffffff021916908373ffffffffffffffffffffffffffffffffffffffff160217905550806001819055506001600060146101000a81548160ff0219169083151502179055506001600060156101000a81548160ff0219169083151502179055505b5050610c3d8061011c6000396000f3006080604052600436106100a4576000357c0100000000000000000000000000000000000000000000000000000000900463ffffffff1680633c8da5881461017a5780634e71d92d146101a5578063590e1ae3146101d4578063597e1fb514610203578063715018a6146102325780638da5cb5b146102495780639a923837146102a0578063aa8c217c146102cf578063f2fde38b146102fa578063fc0c546a1461033d575b6000809054906101000a900473ffffffffffffffffffffffffffffffffffffffff1673ffffffffffffffffffffffffffffffffffffffff163373ffffffffffffffffffffffffffffffffffffffff161415156100ff57600080fd5b60003411151561010e57600080fd5b600060149054906101000a900460ff16151561012957600080fd5b600060159054906101000a900460ff16151561014457600080fd5b60008060146101000a81548160ff02191690831515021790555060008060156101000a81548160ff021916908315150217905550005b34801561018657600080fd5b5061018f610394565b6040518082815260200191505060405180910390f35b3480156101b157600080fd5b506101ba6103b3565b604051808215151515815260200191505060405180910390f35b3480156101e057600080fd5b506101e96107d5565b604051808215151515815260200191505060405180910390f35b34801561020f57600080fd5b50610218610937565b604051808215151515815260200191505060405180910390f35b34801561023e57600080fd5b5061024761094a565b005b34801561025557600080fd5b5061025e610a4c565b604051808273ffffffffffffffffffffffffffffffffffffffff1673ffffffffffffffffffffffffffffffffffffffff16815260200191505060405180910390f35b3480156102ac57600080fd5b506102b5610a71565b604051808215151515815260200191505060405180910390f35b3480156102db57600080fd5b506102e4610a84565b6040518082815260200191505060405180910390f35b34801561030657600080fd5b5061033b600480360381019080803573ffffffffffffffffffffffffffffffffffffffff169060200190929190505050610a8a565b005b34801561034957600080fd5b50610352610af1565b604051808273ffffffffffffffffffffffffffffffffffffffff1673ffffffffffffffffffffffffffffffffffffffff16815260200191505060405180910390f35b60003073ffffffffffffffffffffffffffffffffffffffff1631905090565b600080600080600060149054906101000a900460ff161515156103d557600080fd5b600060159054906101000a900460ff161515156103f157600080fd5b339250600260009054906101000a900473ffffffffffffffffffffffffffffffffffffffff1673ffffffffffffffffffffffffffffffffffffffff1663dd62ed3e84306040518363ffffffff167c0100000000000000000000000000000000000000000000000000000000028152600401808373ffffffffffffffffffffffffffffffffffffffff1673ffffffffffffffffffffffffffffffffffffffff1681526020018273ffffffffffffffffffffffffffffffffffffffff1673ffffffffffffffffffffffffffffffffffffffff16815260200192505050602060405180830381600087803b1580156104e557600080fd5b505af11580156104f9573d6000803e3d6000fd5b505050506040513d602081101561050f57600080fd5b81019080805190602001909291905050509150600154821015151561053357600080fd5b6001600060146101000a81548160ff021916908315150217905550600260009054906101000a900473ffffffffffffffffffffffffffffffffffffffff1673ffffffffffffffffffffffffffffffffffffffff166323b872dd846000809054906101000a900473ffffffffffffffffffffffffffffffffffffffff166001546040518463ffffffff167c0100000000000000000000000000000000000000000000000000000000028152600401808473ffffffffffffffffffffffffffffffffffffffff1673ffffffffffffffffffffffffffffffffffffffff1681526020018373ffffffffffffffffffffffffffffffffffffffff1673ffffffffffffffffffffffffffffffffffffffff1681526020018281526020019350505050602060405180830381600087803b15801561066a57600080fd5b505af115801561067e573d6000803e3d6000fd5b505050506040513d602081101561069457600080fd5b810190808051906020019092919050505015156106b057600080fd5b6106b8610394565b90508273ffffffffffffffffffffffffffffffffffffffff166108fc829081150290604051600060405180830381858888f19350505050158015610700573d6000803e3d6000fd5b507fa8a7473f10e62cf9687e243de1c3ac8b3cbc3dd04b96826beb3a65b5953858146000809054906101000a900473ffffffffffffffffffffffffffffffffffffffff168483600154604051808573ffffffffffffffffffffffffffffffffffffffff1673ffffffffffffffffffffffffffffffffffffffff1681526020018473ffffffffffffffffffffffffffffffffffffffff1673ffffffffffffffffffffffffffffffffffffffff16815260200183815260200182815260200194505050505060405180910390a16001935050505090565b6000806000809054906101000a900473ffffffffffffffffffffffffffffffffffffffff1673ffffffffffffffffffffffffffffffffffffffff163373ffffffffffffffffffffffffffffffffffffffff1614151561083357600080fd5b600060149054906101000a900460ff1615151561084f57600080fd5b600060159054906101000a900460ff1615151561086b57600080fd5b6001600060146101000a81548160ff02191690831515021790555061088e610394565b90506000809054906101000a900473ffffffffffffffffffffffffffffffffffffffff1673ffffffffffffffffffffffffffffffffffffffff166108fc829081150290604051600060405180830381858888f193505050501580156108f7573d6000803e3d6000fd5b507f2e1897b0591d764356194f7a795238a87c1987c7a877568e50d829d547c92b97816040518082815260200191505060405180910390a1600191505090565b600060149054906101000a900460ff1681565b6000809054906101000a900473ffffffffffffffffffffffffffffffffffffffff1673ffffffffffffffffffffffffffffffffffffffff163373ffffffffffffffffffffffffffffffffffffffff161415156109a557600080fd5b6000809054906101000a900473ffffffffffffffffffffffffffffffffffffffff1673ffffffffffffffffffffffffffffffffffffffff167ff8df31144d9c2f0f6b59d69b8b98abd5459d07f2742c4df920b25aae33c6482060405160405180910390a260008060006101000a81548173ffffffffffffffffffffffffffffffffffffffff021916908373ffffffffffffffffffffffffffffffffffffffff160217905550565b6000809054906101000a900473ffffffffffffffffffffffffffffffffffffffff1681565b600060159054906101000a900460ff1681565b60015481565b6000809054906101000a900473ffffffffffffffffffffffffffffffffffffffff1673ffffffffffffffffffffffffffffffffffffffff163373ffffffffffffffffffffffffffffffffffffffff16141515610ae557600080fd5b610aee81610b17565b50565b600260009054906101000a900473ffffffffffffffffffffffffffffffffffffffff1681565b600073ffffffffffffffffffffffffffffffffffffffff168173ffffffffffffffffffffffffffffffffffffffff1614151515610b5357600080fd5b8073ffffffffffffffffffffffffffffffffffffffff166000809054906101000a900473ffffffffffffffffffffffffffffffffffffffff1673ffffffffffffffffffffffffffffffffffffffff167f8be0079c531659141344cd1fd0a4f28419497f9722a3daafe3b4186f6b6457e060405160405180910390a3806000806101000a81548173ffffffffffffffffffffffffffffffffffffffff021916908373ffffffffffffffffffffffffffffffffffffffff160217905550505600a165627a7a723058205c6f38617ea91393d83e14f7a71fede8432f963510c68552b91de81f8ca859370029a165627a7a723058207583beadf9a93d8669fd7d199fbee6e1bec205bfd03908d1b8fcfe3c05cd30a90029",
  "source": "pragma solidity ^0.4.11;\n\nimport './TokenPurchase.sol';\nimport './DetailedERC20.sol';\n\ncontract TokenPurchaseFactory {\n  function TokenPurchaseFactory() {\n  }\n\n  event TokenPurchaseCreated(address tokenPurchaseAddress);\n\n  function createTokenPurchase(DetailedERC20 _token, uint256 _amount) external returns (address) {\n    require(_amount > 0);\n\n    TokenPurchase tokenPurchase = new TokenPurchase(_token, _amount);\n    tokenPurchase.transferOwnership(msg.sender);\n    TokenPurchaseCreated(tokenPurchase);\n\n    return tokenPurchase;\n  }\n}\n",
  "sourcePath": "/home/rise/Documents/token-marketplace/contracts/TokenPurchaseFactory.sol",
  "compiler": {
    "name": "solc",
    "version": "0.4.24+commit.e67f0147.Emscripten.clang"
  },
  "schemaVersion": "2.0.1",
  "updatedAt": "2018-08-28T03:54:08.424Z"
}